:100000000C94BA000C94E2000C94E2000C94E20010
:100010000C94E2000C94E2000C94E2000C94E200D8
:100020000C94E2000C94E2000C94E2000C94E200C8
:100030000C94E2000C94E2000C94E2000C94E200B8
:100040000C9438040C94E2000C94A8040C948204E0
:100050000C94E2000C94E2000C94E2000C94E20098
:100060000C94E2000C94E2005A7375744574686550
:10007000726E65745544503A3A626567696E5061B4
:10008000636B657428636F6E73742063686172209C
:100090002A686F73742C2075696E7431365F742012
:1000A000706F7274293B206973206E6F74207375B2
:1000B00070706F727465642120536F7272792100C1
:1000C0005A73757420657468206E747020636C694F
:1000D000656E7420696E69742E2E2E0030003A0011
:1000E00030003A00546865205554432074696D65AA
:1000F0002069732000556E69782074696D65203D14
:1001000020005365636F6E64732073696E636520AE
:100110004A616E20312031393030203D20004E546C
:10012000502073657276657220726573706F6E739E
:1001300020697320696E636F727265637421004E6B
:100140005450206D616368696E6520756E6B6E6FCB
:10015000776E2073746174653A20004E545020729B
:100160006571756573742073656E64696E672E2E94
:100170002E00DA0411241FBECFEFD8E0DEBFCDBFC2
:1001800011E0A0E0B1E0ECEFFEE002C005900D92BE
:10019000A434B107D9F722E0A4E4B1E001C01D9274
:1001A000AB35B207E1F710E0CAEBD0E004C021970D
:1001B000FE010E947607C93BD107C9F70E94490595
:1001C0000C947C070C940000AF92BF92CF92DF9208
:1001D000EF92FF920F931F93CF93DF936C017B01FC
:1001E0008B01040F151FEB015E01AE18BF08C0178D
:1001F000D10759F06991D601ED91FC910190F08100
:10020000E02DC6010995892B79F7C501DF91CF91C2
:100210001F910F91FF90EF90DF90CF90BF90AF9024
:100220000895FC01538D448D252F30E0842F90E0FC
:10023000821B930B541710F0CF96089501970895E1
:10024000FC01918D828D981761F0A28DAE0FBF2FAA
:10025000B11D5D968C91928D9F5F9F73928F90E000
:1002600008958FEF9FEF0895FC01918D828D98176F
:1002700031F0828DE80FF11D858D90E008958FEFAC
:100280009FEF0895FC01918D228D892F90E0805C75
:100290009F4F821B91098F739927089583E891E0FE
:1002A0000E94420121E0892B09F420E0822F089569
:1002B00080E090E0892B29F00E944E0181110C947E
:1002C00000000895FC01A48DA80FB92FB11DA35AF9
:1002D000BF4F2C91848D90E001968F739927848F66
:1002E000A689B7892C93A089B1898C918370806489
:1002F0008C93938D848D981306C00288F389E02D2A
:1003000080818F7D80830895EF92FF920F931F93DA
:10031000CF93DF93EC0181E0888F9B8D8C8D9813B8
:100320001AC0E889F989808185FF15C09FB7F894C4
:10033000EE89FF896083E889F98980818370806410
:1003400080839FBF81E090E0DF91CF911F910F915B
:10035000FF90EF900895F62E0B8D10E00F5F1F4F6A
:100360000F731127E02E8C8D8E110CC00FB607FC79
:10037000FACFE889F989808185FFF5CFCE010E9407
:100380006201F1CFEB8DEC0FFD2FF11DE35AFF4F12
:10039000F0829FB7F8940B8FEA89FB898081806295
:1003A000CFCFEF92FF920F931F93CF93DF938C01E8
:1003B0007B01D0E0C0E0F701EC0FFD1F64916623E4
:1003C00039F0C8010E948401892B11F02196F3CFE6
:1003D000CE01DF91CF911F910F91FF90EF90089583
:1003E000CF93DF93EC01888D8823B9F0AA89BB896C
:1003F000E889F9898C9185FD03C0808186FD0DC057
:100400000FB607FCF7CF8C9185FFF2CF808185FF77
:10041000EDCFCE010E946201E9CFDF91CF91089527
:1004200066B747B728B739B770E090E080E0962FFD
:10043000882777276627842B632B722B089581E00A
:10044000089587E08CBF95EE9BBF1ABE8CBF86EEE9
:100450008BBF1ABE089590E080E0089597E09CBF9E
:1004600087EE8BBF2AB79CBF88EE8BBF8AB7322F2F
:10047000282F9CBF85EE8BBF8AB79CBF96EE9BBF93
:100480009AB7892798278927821B930B4817590702
:1004900008F4CA01A9014751584FFB01DB01A80F1D
:1004A000B91FEA17FB0739F05CBF4BBF6AB761930E
:1004B0004F5F5F4FF6CF280F391F47E04CBF57EE15
:1004C0005BBF3ABF4CBF38EE3BBF2ABF0895CF9306
:1004D000DF931F92CDB7DEB7DC01ED91FC91028C6A
:1004E000F38DE02D41E050E0BE016F5F7F4F099535
:1004F0001816190634F4898190E00F90DF91CF919E
:1005000008958FEF9FEFF9CFFC0197E09CBF85EE38
:100510008BBF8AB79CBF26EE2BBF6AB79CBF27EE66
:100520002BBF2AB79CBF98EE9BBF3AB71CBE90E189
:100530009BBF9AB71CBE4FE04BBF4AB71CBE5EE0E4
:100540005BBF5AB71CBE7DE07BBF7AB7708B518B07
:10055000428B938B1CBE91E19BBF4AB71CBE92E1BC
:100560009BBF9AB7542F492F558B448B982F862FBA
:10057000232732272327821B930B08951CBE83E178
:100580008BBF8AB71CBE94E19BBF9AB78927982777
:100590008927FB019C012B5E3F4FDB01A40FB51F98
:1005A000EA17FB0739F061913CBF2BBF6ABF2F5F91
:1005B0003F4FF6CF480F591F1CBE83E18BBF5ABF78
:1005C0001CBE84E18BBF4ABF90E080E00895CF93CA
:1005D000DF931F92CDB7DEB76983DC01ED91FC910B
:1005E0000280F381E02D41E050E0BE016F5F7F4F5C
:1005F00009950F90DF91CF9108951CBE1BBE8FEF20
:100600008ABF1CBE1BBE82E08ABF90E080E00895D6
:10061000FB0132812381948185811CBE1BBE61E078
:100620006ABF1CBE6DE06BBF3ABF1CBE3EE03BBF65
:100630002ABF1CBE2FE02BBF9ABF1CBE90E19BBF00
:100640008ABF1CBE81E18BBF5ABF1CBE82E18BBF3B
:100650004ABF81E090E008950895DC01ED91FC919E
:10066000008CF18DE02D09941CBE8BE08BBF7ABF0E
:100670001CBE8CE08BBF6ABF1CBE1BBE83E08ABF62
:1006800081E00895FC018489958908952EE331E085
:10069000FC0131832083FB01408951896289738980
:1006A000FC0142835383648375830895DC01ED91DB
:1006B000FC91028CF38DE02D099490E080E0089588
:1006C0008F929F92AF92BF92EF92FF920F931F93E0
:1006D000CF93DF93CDB7DEB7A1970FB6F894DEBF07
:1006E0000FBECDBF7C01FA01CB0119A2223008F464
:1006F0002AE08E010F5D1F4F822E912CB12CA12C70
:10070000BF01A50194010E945407F901CA016A3092
:1007100074F5605DD8016E938D01232B242B252B5E
:1007200079F790E080E0109789F0FD0101900020BA
:10073000E9F73197AF014A1B5B0BD701ED91FC91B3
:100740000280F381E02DB801C7010995A1960FB68B
:10075000F894DEBF0FBECDBFDF91CF911F910F91F7
:10076000FF90EF90BF90AF909F908F900895695C3D
:10077000D1CF8F929F92AF92BF92CF92DF92EF92A2
:10078000FF920F931F93CF93DF937C01EB016C01DA
:1007900082E0C80ED11C4701E5E08E0E911C10E0EE
:1007A00000E0F60141916F0150E070E060E02AE066
:1007B000CE010E9460035C01E881F9810190F08123
:1007C000E02D6EE2CE0109958A0D9B1D080F191FC1
:1007D000C814D90431F7F701458150E070E060E0BA
:1007E0002AE0CE010E946003800F911FDF91CF911C
:1007F0001F910F91FF90EF90DF90CF90BF90AF903F
:100800009F908F90089542E050E060E471E00C9476
:10081000E400CF93DF93AB01BC012AE083E891E0D1
:100820000E946003EC0183E891E00E9403048C0FB6
:100830009D1FDF91CF9108950F931F93CF93DF9367
:10084000EC010E94D1018C01CE010E940304800FB3
:10085000911FDF91CF911F910F91089568E670E08D
:1008600083E891E00E941C04989590E080E0089550
:100870001F920F920FB60F9211242F933F938F93D5
:100880009F93AF93BF9380917F0190918001A0913E
:100890008101B091820130917E0123E0230F2D3739
:1008A00058F50196A11DB11D20937E0180937F0113
:1008B00090938001A0938101B093820180917A018D
:1008C00090917B01A0917C01B0917D010196A11DC9
:1008D000B11D80937A0190937B01A0937C01B0932A
:1008E0007D01BF91AF919F918F913F912F910F907B
:1008F0000FBE0F901F90189526E8230F0296A11D9A
:10090000B11DD2CF1F920F920FB60F9211242F93C9
:100910003F934F935F936F937F938F939F93AF9387
:10092000BF93EF93FF9383E891E00E946201FF91F0
:10093000EF91BF91AF919F918F917F916F915F9157
:100940004F913F912F910F900FBE0F901F901895D0
:100950001F920F920FB60F9211242F938F939F9394
:10096000EF93FF93E0919301F09194018081E091E6
:100970009901F0919A0182FD1BC0908180919C01A8
:100980008F5F8F7320919D01821741F0E0919C0150
:10099000F0E0ED57FE4F958F80939C01FF91EF9112
:1009A0009F918F912F910F900FBE0F901F901895D0
:1009B0008081F4CFE3E8F1E01382128248EE53E045
:1009C00060E070E0448355836683778384E091E040
:1009D0009183808385EC90E09587848784EC90E018
:1009E0009787868780EC90E0918B808B81EC90E0FC
:1009F000938B828B82EC90E0958B848B86EC90E0DD
:100A0000978B868B118E128E138E148EE0E2F2E09D
:100A10008EE391E091838083128213821482158287
:100A2000EEE2F2E0918380831282138214821582B7
:100A3000E6E2F2E0918380831282138214821582AF
:100A4000E5E5F2E09183808312821382148215829D
:100A5000EFE4F2E09183808322EC22832DE1238373
:100A600022E824832CEF2583E4E3F2E01382128250
:100A7000448355836683778326E131E03183208385
:100A800097878687108A118A128A138A84E0808F5A
:100A90000895CF93DF93CDB7DEB72C970FB6F894B8
:100AA000DEBF0FBECDBF789484B5826084BD84B5AF
:100AB000816084BD85B5826085BD85B5816085BD59
:100AC00080916E00816080936E0010928100809111
:100AD0008100826080938100809181008160809399
:100AE0008100809180008160809380008091B100BE
:100AF00084608093B1008091B00081608093B000E9
:100B000080917A00846080937A0080917A0082607C
:100B100080937A0080917A00816080937A0080913E
:100B20007A00806880937A001092C100E09193016E
:100B3000F091940182E08083E0918F01F091900127
:100B40001082E0919101F091920180E180831092F6
:100B50009B01E0919701F091980186E08083E091FC
:100B60009501F0919601808180618083E0919501EB
:100B7000F0919601808188608083E0919501F091E9
:100B80009601808180688083E0919501F0919601C3
:100B900080818F7D808360EC70E083E891E00E942B
:100BA0001C0488E0809328028093290280932A0203
:100BB00080932B0268EB72E284E392E00E9434039C
:100BC0000E94100260937401709375018093760106
:100BD0009093770110927901109278019CE3892E0D
:100BE000912CA12CB12C20E0222E20E0322E11E3FA
:100BF0000EE4C0907801D0907901C114D10409F0BD
:100C000074C00E941002C0907401D0907501E090F1
:100C10007601F0907701C616D706E806F90608F0C7
:100C200058C00E94100268577C4E8F4F9F4F6093B0
:100C300074017093750180937601909377016BE551
:100C400071E083E891E00E941C0480915102909130
:100C50005202A0915302B091540244E451E0FA01CF
:100C600020E311922A95E9F733EE30934401E6E050
:100C7000E0934601FCEEF09347011093500100937E
:100C800051011093520124E3209353012EE331E0EC
:100C90003A8329838B839C83AD83BE834BE750E0EB
:100CA000BE016F5F7F4F84E392E00E94080340E340
:100CB00050E064E471E084E392E00E94BE0284E3C9
:100CC00092E00E94FD0281E090E090937901809390
:100CD00078012114310409F48CCF0E944E0188233D
:100CE00009F485CF0E94000082CF91E0C916D1049B
:100CF00009F0B5C084E392E00E948402892B49F395
:100D000040E350E064E471E084E392E00E942E024C
:100D1000C0970CF49DC0C0906C01D0906D01DC2494
:100D2000CD24DC24F12CE12C7601DD24CC2480912F
:100D30006E0190916F01982789279827B0E0A0E075
:100D4000C82AD92AEA2AFB2A62E071E083E891E006
:100D50000E94D101C701B6010E94090465EF70E04D
:100D600083E891E00E94D101E0E8CE1AEEE7DE0AC6
:100D7000EAEAEE0AE3E8FE0AC701B6010E940904A6
:100D800064EE70E083E891E00E94D101C701B601F2
:100D900020E831E541E050E00E94540720E13EE0C8
:100DA00040E050E00E945407BA01A9012AE083E81C
:100DB00091E00E94600362EE70E083E891E00E949F
:100DC000D101C701B60120E13EE040E050E00E94C1
:100DD00054072B013C01F8E54F16F2E05F06610471
:100DE000710430F460EE70E083E891E00E94D1017C
:100DF000C301B201A50194010E945407BA01A901DF
:100E00002AE083E891E00E9460036EED70E083E8E1
:100E100091E00E94D101C701B601A50194010E9491
:100E200054076B017C012AE0C216D104E104F104ED
:100E300030F46CED70E083E891E00E94D101C701CD
:100E4000B6010E940904109279011092780141CFF5
:100E50006EE171E083E891E00E941C04F4CF6FE33F
:100E600071E083E891E00E94D1010D2C000CEE08A6
:100E7000FF082AE0B701A601F7FE0DC06DE283E886
:100E800091E00E94840144275527BA014C195D095D
:100E90006E097F092AE083E891E00E94600383E8FD
:100EA00091E00E940304CFCFA1E21A2EAA1BBB1B24
:100EB000FD010DC0AA1FBB1FEE1FFF1FA217B30726
:100EC000E407F50720F0A21BB30BE40BF50B661F3C
:100ED000771F881F991F1A9469F760957095809500
:100EE00090959B01AC01BD01CF010895EE0FFF1F4E
:0C0EF0000590F491E02D0994F894FFCFD8
:100EFC00000000008401E4001101F0014201200116
:100F0C00340100000000E702BE025D0321022D0344
:100F1C0067022B0234032C0308032E04FD02840207
:100F2C002E025603460342031F0200000000B903C1
:040F3C000D0A00009A
:00000001FF
